:020000040000fa
:080000000002040000000000f2
:020000040000fa
:040008006003000091
:020000040000fa
:04000c0030030000bd
:020000040000fa
:0400100036030000b3
:020000040000fa
:040014003c030000a9
:020000040000fa
:04001800420300009f
:020000040000fa
:04001c00600300007d
:020000040000fa
:040020006003000079
:020000040000fa
:040024006003000075
:020000040000fa
:040028006003000071
:020000040000fa
:04002c00600300006d
:020000040000fa
:040030006003000069
:020000040000fa
:040034006003000065
:020000040000fa
:040038006003000061
:020000040000fa
:04003c00600300005d
:020000040000fa
:040040006003000059
:020000040000fa
:040044006003000055
:020000040000fa
:040048006003000051
:020000040000fa
:04004c00600300004d
:020000040000fa
:040050006003000049
:020000040000fa
:040054006003000045
:020000040000fa
:040058006003000041
:020000040000fa
:04005c00600300003d
:020000040000fa
:040060006003000039
:020000040000fa
:040064006003000035
:020000040000fa
:040068006003000031
:020000040000fa
:04006c00600300002d
:020000040000fa
:040070006003000029
:020000040000fa
:040074006003000025
:020000040000fa
:040078006003000021
:020000040000fa
:04007c00600300001d
:020000040000fa
:040080006003000019
:020000040000fa
:040084006003000015
:020000040000fa
:040088006003000011
:020000040000fa
:04008c00600300000d
:020000040000fa
:040090006003000009
:020000040000fa
:040094006003000005
:020000040000fa
:040098006003000001
:020000040000fa
:04009c0060030000fd
:020000040000fa
:0400a00060030000f9
:020000040000fa
:0400a40060030000f5
:020000040000fa
:0400a80060030000f1
:020000040000fa
:0400ac0060030000ed
:020000040000fa
:0400b00060030000e9
:020000040000fa
:0400b40060030000e5
:020000040000fa
:0400b80060030000e1
:020000040000fa
:0400bc0060030000dd
:020000040000fa
:0400c00060030000d9
:020000040000fa
:0400c40060030000d5
:020000040000fa
:0400c80060030000d1
:020000040000fa
:0400cc0060030000cd
:020000040000fa
:0400d00060030000c9
:020000040000fa
:0400d40060030000c5
:020000040000fa
:0400d80060030000c1
:020000040000fa
:0400dc0060030000bd
:020000040000fa
:0400e00060030000b9
:020000040000fa
:0400e40060030000b5
:020000040000fa
:0400e80060030000b1
:020000040000fa
:0400ec0060030000ad
:020000040000fa
:0400f00060030000a9
:020000040000fa
:0400f40060030000a5
:020000040000fa
:0400f80060030000a1
:020000040000fa
:0400fc00600300009d
:020000040000fa
:040100006003000098
:020000040000fa
:040104006003000094
:020000040000fa
:040108006003000090
:020000040000fa
:04010c00c802000025
:020000040000fa
:040110006003000088
:020000040000fa
:040114006003000084
:020000040000fa
:040118006003000080
:020000040000fa
:04011c00600300007c
:020000040000fa
:040120006003000078
:020000040000fa
:040124006003000074
:020000040000fa
:040128006003000070
:020000040000fa
:04012c00600300006c
:020000040000fa
:040130006003000068
:020000040000fa
:040134006003000064
:020000040000fa
:040138006003000060
:020000040000fa
:04013c00600300005c
:020000040000fa
:040140006003000058
:020000040000fa
:040144006003000054
:020000040000fa
:040148006003000050
:020000040000fa
:04014c00600300004c
:020000040000fa
:040150006003000048
:020000040000fa
:04020800600300008f
:020000040000fa
:04020c0048030000a3
:020000040000fa
:040210004e03000099
:020000040000fa
:04021400540300008f
:020000040000fa
:040218005a03000085
:020000040000fa
:04021c00600300007b
:020000040000fa
:040220006003000077
:020000040000fa
:040224006003000073
:020000040000fa
:04022800600300006f
:020000040000fa
:04022c00600300006b
:020000040000fa
:040230006003000067
:020000040000fa
:040234006003000063
:020000040000fa
:04023800600300005f
:020000040000fa
:04023c00600300005b
:020000040000fa
:040240006003000057
:020000040000fa
:040244006003000053
:020000040000fa
:04024800600300004f
:020000040000fa
:04024c00600300004b
:020000040000fa
:040250006003000047
:020000040000fa
:040254006003000043
:020000040000fa
:04025800600300003f
:020000040000fa
:04025c00600300003b
:020000040000fa
:040260006003000037
:020000040000fa
:040264006003000033
:020000040000fa
:04026800600300002f
:020000040000fa
:04026c00600300002b
:020000040000fa
:040270006003000027
:020000040000fa
:040274006003000023
:020000040000fa
:04027800600300001f
:020000040000fa
:04027c00600300001b
:020000040000fa
:040280006003000017
:020000040000fa
:040284006003000013
:020000040000fa
:04028800600300000f
:020000040000fa
:04028c00600300000b
:020000040000fa
:040290006003000007
:020000040000fa
:040294006003000003
:020000040000fa
:0402980060030000ff
:020000040000fa
:04029c0060030000fb
:020000040000fa
:0402a00060030000f7
:020000040000fa
:0402a40060030000f3
:020000040000fa
:0402a80060030000ef
:020000040000fa
:0402ac0060030000eb
:020000040000fa
:0402b00060030000e7
:020000040000fa
:0402b40060030000e3
:020000040000fa
:0402b80060030000df
:020000040000fa
:0402bc0060030000db
:020000040000fa
:0402c00060030000d7
:020000040000fa
:0402c40060030000d3
:020000040000fa
:0402c80060030000cf
:020000040000fa
:0402cc0060030000cb
:020000040000fa
:0402d00060030000c7
:020000040000fa
:0402d40060030000c3
:020000040000fa
:0402d80060030000bf
:020000040000fa
:0402dc0060030000bb
:020000040000fa
:0402e00060030000b7
:020000040000fa
:0402e40060030000b3
:020000040000fa
:0402e80060030000af
:020000040000fa
:0402ec0060030000ab
:020000040000fa
:0402f00060030000a7
:020000040000fa
:0402f40060030000a3
:020000040000fa
:0402f800600300009f
:020000040000fa
:0402fc00600300009b
:020000040000fa
:040300006003000096
:020000040000fa
:040304006003000092
:020000040000fa
:04030800600300008e
:020000040000fa
:04030c00600300008a
:020000040000fa
:040310006003000086
:020000040000fa
:040314006003000082
:020000040000fa
:04031800600300007e
:020000040000fa
:04031c00600300007a
:020000040000fa
:040320006003000076
:020000040000fa
:040324006003000072
:020000040000fa
:04032800600300006e
:020000040000fa
:04032c00600300006a
:020000040000fa
:040330006003000066
:020000040000fa
:040334006003000062
:020000040000fa
:04033800600300005e
:020000040000fa
:04033c00600300005a
:020000040000fa
:040340006003000056
:020000040000fa
:040344006003000052
:020000040000fa
:04034800600300004e
:020000040000fa
:04034c00600300004a
:020000040000fa
:040350006003000046
:020000040000fa
:100400006f9920000eff20000e0188000000000000
:10041000000020000000e000020032000001200087
:100420002002880014000700a70007000000e00079
:1004300003003a006036200001002000020037006f
:100440000000200001002000810f70000100320038
:1004500014000700000020000000e000020032004d
:1004600000000200000000008405020000000000ff
:100470000040da000000fe004440a9000000200017
:100480000000e0000300320000002000a00188000e
:100490004440a800000006008a1f78008b1f7800e7
:1004a0000000060091018800800478000000eb0045
:1004b0001a003700e284440032a0b4009905ba0063
:1004c000e284440032a0b4009906ba00e2844400f9
:1004d00032a0b4000006eb00476fde00fd07b2005b
:1004e000636ce10003003a00ebff07000000eb0043
:1004f0000a003700606ce10004003a00005deb0088
:100500008b05e900fdff3e00040037006168e10053
:10051000010032000086eb000b00070019c7ba008b
:100520001905ba000e04e00003003a000a00e000da
:10053000e0ff3a0000000600fe07b2009e018800be
:100540008a047800f5ff3700395dba008b05e900b1
:100550000c003200295dba008b05e900080032006a
:100560000c00e00003003a00e284440032a0b40032
:10057000f5ff370019ddba008b05e900faff3a00f4
:100580008904e800e184440032a0b40000000600c1
:10059000809fbe003400f80000002000a001880009
:1005a0000000fa00a14c8000700c2000808f5000e9
:1005b000010034009429ef0001408000700c2000fd
:1005c000808f5000010034000028ef0011408000af
:1005d000700c2000808f5000010034000228ef00d2
:1005e000a04c80008000400040802000008040003f
:1005f00010007800b00e8800a04c80000000e800d9
:10060000a04c880000408000800040004080200016
:100610000080400010007800c00e8800004080007c
:100620000000e8000040880010408000800040008a
:10063000408020000080400010007800d00e88002c
:10064000104080000000e800104088008b20a900c6
:100650000080fa003400f9004f00be0000400600a0
:100660000000fa008020a900ffff37000000fa0018
:100670008060a900ffff37000000fa008040a90059
:10068000ffff37000000fa008080a900ffff37005d
:100690000000fa008020a900ffff37000000fa00e8
:1006a0008060a900ffff37000000fa008040a90029
:1006b000ffff37000000fa008080a900ffff37002d
:0c06c0000000fa00ffff370000000500fa
:020000040000fa
:1006cc009409000002000000000000000008000077
:1006dc0094010000020000004300860000d00700d7
:1006ec000f084e00088d0800cb080a0009480900c5
:1006fc008609c30009000a003d0a78000ab30a0003
:10070c00ee0a27000b600b00970bce000b040c00bd
:10071c00390c6c000c9f0c00d00c00000d2e0d0041
:10072c005b0d87000db10d00da0d01000e270e00d8
:10073c004b0e6e000e8e0e00ad0ecb000ee60e00b4
:10074c00000f17000f2d0f00410f54000f640f0006
:10075c00720f7f000f890f00910f98000f9c0f00f4
:10076c009f0f9f000f9e0f009a0f95000f8e0f008a
:10077c00840f79000f6b0f005c0f4b000f380f00cc
:10078c00230f0c000ff30e00d80ebc000e9e0e00b3
:10079c007e0e5d000e390e00140eee000dc60d001f
:1007ac009c0d71000d450d00170de8000cb70c00e9
:1007bc00860c53000c1e0c00e90bb3000b7c0b00d9
:1007cc00430b0a000bd10a00960a5a000a1e0a00b3
:1007dc00e209a500096709002909eb0008ac08002b
:1007ec006d082e0008ef0700b007710007320700f4
:1007fc00f306b400067606003806fa0005bd0500bf
:10080c008105450005090500ce049500045c040033
:10081c002304ec0003b6030081034c00031903000e
:10082c00e802b700028802005a022e0002030200fe
:10083c00d901b100018b01006601420001210100c8
:10084c000101e30000c70000ac009300007c000035
:10085c00670054000043000034002600001b000019
:10086c0011000a000005000001000000000000005b
:10087c0003000700000e000016002000002d0000f1
:10088c003b004b00005e000072008800009f0000df
:10089c00b900d40000f20000110131000154010034
:1008ac0078019e0001c50100ee011800024402000f
:1008bc0071029f0002cf02000003330003660300a5
:1008cc009b03d100030804003f04780004b104002a
:1008dc00ec042700056205009f05dc0005190600e5
:1008ec005706950006d40600120751000790070022
:0808fc00d0070000000000001d
:020000040000fa
:100904000000fa00020007000080fa000000060060
:100914000000fa00f07c2000200e8800c901a80025
:10092400c881a800c801a800c921a800c8a1a800be
:10093400c821a800c941a800c8c1a800c841a8008e
:10094400610e8000f0ff230000806000600e8800cc
:10095400610e8000f00f2c008080600000302100c8
:1009640001007000600e8800610e8000f0f32f001b
:1009740000806000600e8800610e800000fc2f0083
:10098400008060003001b300600e8800ce61a900d1
:10099400ce41a900ce21a800ce01a800f07c200001
:1009a400b00e8800f07c2000c00e8800e095200086
:1009b400d00e8800c1e1a8000080fa000000060003
:1009c4000000fa002143a80001198000f0f12f0073
:1009d400808060000006200001007000001988007b
:1009e4002043a80011198000c003200001007000fa
:1009f4001019880050c0b30024e3b70021e3a80015
:100a04000080fa00000006000000fa0081e0a9005e
:100a14009b20a8000080fa00000006000000fa00f5
:100a240040a7a900213a8000f0f32f000080600065
:100a3400203a8800213a800000fe2f0000806000e8
:100a4400203a8800313a800000e02f0000806000e6
:100a54002001b300303a88003200200080072000d3
:100a6400a10920003374200080497800814978006e
:100a740082497800120020006004200071052000e3
:100a840023742000804978008149780082497800e5
:100a940000000000113a8000000027008080600000
:100aa40000002300808f5000faff3a00000000008d
:100ab400113a800000022000008060000000e00085
:0c0ac400fbff32000080fa00000006007a
:020000040000fa
:100ad000f03fb1000180b10006003500ee030900cf
:100ae00000000000403fb1000180b100fbff3d006d
:100af0001000b000203fb000020035000080090067
:080b00000000000000000600e7
:020000040000fa
:100b08000000fa00c4ff07007cff0700c022a9000c
:100b1800c422a80000d0220011132000eaff070019
:100b2800c422a90000d0220011132000e6ff07000c
:040b3800f7ff37008c
:020000040000fa
:0200000401f009
:04000000ffff0000fe
:020000040000fa
:0200000401f009
:04000800ffff0000f6
:020000040000fa
:0200000401f009
:04000c0003000000ed
:020000040000fa
:0200000401f009
:0400100046000000a6
:020000040000fa
:0200000401f009
:040014005f00000089
:020000040000fa
:0200000401f009
:04001800770000006d
:020000040000fa
:0200000401f009
:04001c00dfff000002
:00000001FF
